:020000040800F2
:10000000C8330020E9180008D9110008DB110008E6
:10001000DF110008E3110008E711000800000000EC
:10002000000000000000000000000000EB110008CC
:10003000ED11000800000000EF110008F1110008A8
:100040000319000803190008031900080319000820
:100050000319000803190008031900080319000810
:100060000319000803190008031900080319000800
:1000700003190008031900080319000803190008F0
:1000800003190008031900080319000803190008E0
:1000900003190008031900080319000803190008D0
:1000A00003190008031900080319000803190008C0
:1000B0000319000825110008031900080319000896
:1000C00003190008031900080319000803190008A0
:1000D00003190008EB14000803190008591500085B
:1000E0000319000803190008031900080319000880
:1000F0000319000803190008031900080319000870
:10010000031900080319000803190008031900085F
:10011000031900080319000803190008031900084F
:10012000031900080319000803190008031900083F
:1001300000F002F800F090F80AA090E8000C824469
:100140008344AAF10107DA4501D100F085F8AFF246
:10015000090EBAE80F0013F0010F18BFFB1A43F0A5
:1001600001031847F882000018830000103A24BFEA
:1001700078C878C1FAD8520724BF30C830C144BF0C
:1001800004680C607047000000230024002500264E
:10019000103A28BF78C1FBD8520728BF30C148BFEA
:1001A0000B6070476E2904F0A784702904F0E9857C
:1001B000662907F08C86652907F08986672907F08C
:1001C00086866129AFF3008003681B0A28BF41F0CF
:1001D0008001692904F05484642904F0518475294C
:1001E00004F04E846F2904F07785782904F0B585F2
:1001F000E92904F01185E42904F00E85F52904F0BD
:100200000B85EF2904F07485F82904F0B4850368A0
:10021000DB0928BF41F08001632905F06281732961
:1002200005F06781E32905F07281F32905F07781F4
:10023000002070471FB505F0C9F904000020002117
:1002400006F026FD401C60600020002106F00AFD3B
:10025000E0601FBD10B510BD05F08AF91146FFF72B
:10026000E9FF00F00EFF05F063FA03B4FFF7F2FFB9
:1002700003BC01F0D9FA000002460B7883EA0200C1
:1002800080EA0013D8B20B881B1283EA002383EAAA
:10029000C00383EA20130B8070474FF6FF71018083
:1002A000704738B504460D466846FFF7F6FF04E090
:1002B00014F8010B6946FFF7DFFF281EA5F10101C5
:1002C0008DB2F5D1BDF8000038BD2DE9F0410446EE
:1002D0000D4616462F4604E017F8010B2146FFF79E
:1002E000CBFF301EA6F101018EB2F5D1BDE8F08141
:1002F0002DE9F04F93B083468A46DBF8000007F003
:100300004BFA04460D46DBF8040007F045FA0646B2
:100310000F46DBF8080007F03FFA80468946DBF815
:100320000C0007F039FACDE9100122462B46204691
:10033000294606F057FFCDE90E0132463B463046CE
:10034000394606F04FFFCDE90C0142464B46404688
:10035000494606F047FFCDE90A01DDE910231046C2
:10036000194606F03FFFCDE90801DDE90C23DDE980
:100370000E0106F0D5FCCDE90201DDE90A2307F004
:1003800021F9CDE90401DDE9082307F01BF9CDE9E6
:10039000060106F093FCCAF8000020462946DDE974
:1003A000102306F01FFF42464B46CDE902013046BE
:1003B000394606F017FFCDE90001DDE9022307F019
:1003C00001F900224FF08043CDE9040106F00AFF55
:1003D000CDE9060106F072FCCAF804003046394641
:1003E000DDE9102306F0FEFE42464B46CDE9020150
:1003F0002046294606F0F6FECDE90001DDE902239C
:1004000006F08EFC00224FF08043CDE9040106F097
:10041000E9FECDE9060106F051FCCAF808002046C5
:100420002946DDE9102306F0DDFE42464B46CDE9C4
:1004300002013046394606F0D5FECDE90001DDE97E
:10044000022306F06DFC00224FF08043CDE9040149
:1004500006F0C8FECDE9060106F030FCCAF80C0033
:10046000DDE90C23DDE90E0107F0ACF8CDE902016E
:10047000DDE90A2306F054FCCDE90401DDE9082397
:1004800007F0A0F8CDE9060106F018FCCAF8100044
:1004900032463B462046294606F0A4FECDE902013D
:1004A00040464946DDE9102306F09CFECDE90001F7
:1004B000DDE9022307F086F800224FF08043CDE902
:1004C000040106F08FFECDE9060106F0F7FBCAF83D
:1004D000140042464B462046294606F083FECDE9ED
:1004E000020130463946DDE9102306F07BFECDE9F6
:1004F0000001DDE9022307F065F800224FF0804398
:10050000CDE9040106F06EFECDE9060106F0D6FB4A
:10051000CAF8180040464946DDE9102306F062FE9D
:1005200032463B46CDE902012046294606F05AFEF6
:10053000CDE90001DDE9022306F0F2FB00224FF0D5
:100540008043CDE9040106F04DFECDE9060106F039
:10055000B5FBCAF81C00DDE90C23DDE90E0107F04C
:1005600031F8CDE90201DDE90A2307F02BF8CDE9E6
:100570000401DDE9082306F0D3FBCDE9060106F00E
:100580009DFBCAF8200013B0BDE8F08F2DE9FF5F96
:1005900004460F4690469946A06980F0004B5846A5
:1005A00007F0FAF8CDE9000106F01CF8CDE90201E8
:1005B00006F084FB82460020FE4906F013F8CDE9E0
:1005C000000106F07BFB8346514607F078FB20F0E4
:1005D0000040F949039007F041FA13D20025216940
:1005E000A06807F005F903906168606907F0FAFBFD
:1005F0000290039906F02EF98346294607F0F8F891
:10060000064630E00020EB4905F0ECFFCDE90001A3
:1006100006F054FB8346514607F0EAF820F000400C
:10062000E549039007F01AFA13D200252169A06862
:1006300007F0DEF82946029007F0D4FB8346616894
:10064000606907F0CFFB5946039006F003F90646B0
:1006500009E0D4E9070106F0FDF805462168E068E5
:1006600006F0F8F806463D60C8F800A0C9F800603A
:10067000BDE8FF9FF0B589B004460D4616461F46FB
:1006800069462046FFF734FE3B4632462946684617
:10069000FFF77CFF09B0F0BD2DE9FF4F8FB08B460F
:1006A0009A460F9807F078F800224FF08043CDE982
:1006B000040106F0E5FBCDE9060106F0F9F9044670
:1006C0000D460F9807F068F800224FF08043CDE9FF
:1006D000040106F0D5FBCDE9060106F037FA06461F
:1006E0000F46584607F058F800224FF08043CDE9F6
:1006F000040106F0C5FBCDE9060106F0D9F98046F4
:100700008946584607F048F800224FF08043CDE96B
:10071000040106F0B5FBCDE9060106F017FACDE9B4
:100720000C01119807F038F800224FF08043CDE912
:10073000040106F0A5FBCDE9060106F0B9F9CDE903
:100740000A01119807F028F800224FF08043CDE904
:10075000040106F095FBCDE9060106F0F7F9CDE9B5
:10076000080130463946DDE90C2306F03BFDCDE9B2
:100770000001DDE9082306F035FD42464B46CDE990
:1007800004012046294606F02DFDCDE90001DDE9F2
:100790000A2306F027FDCDE90201DDE9042306F076
:1007A000BFFACDE9060106F089FACAF80000204632
:1007B0002946DDE90C2306F015FDCDE90001DDE950
:1007C000082306F00FFD42464B46CDE904013046B2
:1007D000394606F007FDCDE90001DDE90A2306F000
:1007E00001FDCDE90201DDE9042306F0EBFECDE9D0
:1007F000060106F063FACAF8040042464B4630464A
:10080000394606F0EFFCCDE90001DDE9082306F0EA
:10081000E9FCCDE9040120462946DDE90C2306F078
:10082000E1FCCDE90001DDE90A2306F0DBFCCDE9BE
:100830000201DDE9042306F073FACDE9060106F0B2
:100840003DFACAF8080030463946DDE90C2306F0C7
:10085000C9FCCDE90001DDE90A2306F0C3FC4246EC
:100860004B46CDE904012046294606F0BBFCCDE904
:100870000001DDE9082306F0B5FCCDE90201DDE960
:10088000042306F09FFECDE9060106F017FACAF828
:100890000C0013B0BDE8F08F2DE9FE4F04460E4664
:1008A0002169206806F0A4FF0546216A06F0A0FF32
:1008B00002900021029807F0D1F930D24FF07E511A
:1008C000029806F095FF814606F0B6F905464FF00E
:1008D0007C51284607F0F6F8306029464FF07C50EE
:1008E00006F0FAFF05466169E06907F07BFA814688
:1008F000294607F0E7F87060A169A06807F072FA6E
:100900008146294607F0DEF8B0606168E06807F0CC
:1009100069FA8146294607F0D5F8F06096E000258F
:100920004FF0010911E005EB450204EB820252F899
:10093000251009EB490204EB820252F8290007F066
:100940008DF900D24D4609F10109B9F1030FEADB37
:10095000681C032190FBF1F201FB1207A81C90FB1D
:10096000F1F201FB120807EB470204EB820252F896
:10097000271005EB450204EB820252F8250007F030
:1009800031FA009008EB480004EB800050F8281082
:10099000009807F027FA4FF07E51019006F028FFEB
:1009A000834606F049F982464FF07C51504607F0E5
:1009B00089F803E00000F03F6F12833A691C46F8A3
:1009C000210051464FF07C5006F086FF824607EB2F
:1009D000470204EB820252F8251005EB450204EBB6
:1009E000820252F8270006F003FF8346514607F0C3
:1009F00069F8791C46F8210005EB450204EB8202F8
:100A000052F8281008EB480204EB820252F8250045
:100A100006F0EEFE8346514607F054F808F1010156
:100A200046F8210007EB470204EB820252F8281037
:100A300008EB480204EB820252F8270007F0D2F9D3
:100A40008346514607F03EF8306000BFBDE8FE8F98
:100A50002DE9FF4F8FB08B469A460F9806F09CFE0B
:100A6000CDE9060106F024F804460D460F9806F07D
:100A700093FECDE9060106F069F806460F46584692
:100A800006F08AFECDE9060106F012F8CDE90C0168
:100A9000584606F081FECDE9060106F057F880467B
:100AA0008946119806F078FECDE9060106F000F8B7
:100AB000CDE90A01119806F06FFECDE9060106F0B6
:100AC00045F8CDE90801DDE90A23DDE90C0106F06E
:100AD00089FBCDE9060106F0F1F8CAF800004246AC
:100AE0004B463046394606F07DFBCDE90001DDE995
:100AF0000A2306F077FBCDE9040185F00040CDE93B
:100B000000402046DDE90823019906F06BFBCDE9A2
:100B10000201DDE9042306F003F9CDE9060106F040
:100B2000CDF8CAF8040042464B462046294606F056
:100B300059FBCDE90001DDE90A2306F053FBCDE9BD
:100B4000040130463946DDE9082306F04BFBCDE9C8
:100B50000201DDE9042306F0E3F8CDE9060106F021
:100B6000ADF8CAF80800DDE90823DDE90C0106F05C
:100B700039FBCDE9060106F0A1F8CAF80C0042469F
:100B80004B463046394606F02DFBCDE90001DDE944
:100B9000082306F027FBCDE9040120462946DDE9BC
:100BA0000A2306F01FFBCDE90201DDE9042306F06C
:100BB000B7F8CDE9060106F081F8CAF81000424600
:100BC0004B462046294606F00DFBCDE90001DDE944
:100BD000082306F007FBCDE9040187F00040CDE9CA
:100BE00000603046DDE90A23019906F0FBFACDE901
:100BF0000201DDE9042306F093F8CDE9060106F0D1
:100C00005DF8CAF8140089F000414046CDE906813C
:100C100006F054F8CAF8180030463946DDE90C23CE
:100C200006F0E0FACDE9060106F048F8CAF81C0023
:100C300020462946DDE90C2306F0D4FACDE9060169
:100C400006F03CF8CAF8200013B0BDE8F08F01466A
:100C500001EB4100FE4A02EB80007047014601EBC8
:100C60000110FC4A02EB0010704770B504462046A4
:100C7000FFF7EDFF05460120E87070BD2DE9F04754
:100C800004460D4616461F46DDE90889FE20A07081
:100C900084F803806571A6713846FFF7D8FF807924
:100CA00020713846FFF7D3FF8079401C00F0FF0A1F
:100CB0003846FFF7CCFF80F806A00521E01CFFF7BF
:100CC000F0FA2080E27804F108012046FFF7FDFAEF
:100CD00021464846FFF7D0FA2178E27804F108006F
:100CE000815420880212E078401C04F108010A5463
:100CF00008F10800BDE8F0872DE9FC4105460E46E5
:100D000017461C46DDF8208000233A463146284627
:100D1000CDE90048FFF7B2FFBDE8FC8170B506469B
:100D20000C4615462946204600F0B3FB70BD2DE960
:100D3000FF4780460E4617461C46DDF83090404679
:100D4000FFF785FF0546FE208DF804008DF805406D
:100D5000A8798DF80600C04800788DF80700BE48D5
:100D600040788DF808008DF80960A879401CA871BA
:100D700005210DF10500FFF794FA0390224639464C
:100D800003A8FFF7A2FA03A94846FFF775FABDF8D2
:100D90000C00C0B28DF80000BDF80C0000128DF8F8
:100DA0000100062201A94046FFF7B8FF2246394656
:100DB0004046FFF7B3FF022269464046FFF7AEFF09
:100DC000BDE8FF8738B505460C4620788DF8000051
:100DD000208800128DF801000622A11C2846FFF78A
:100DE0009DFFE27804F108012846FFF797FF0222F1
:100DF00069462846FFF792FF38BD70B505460C4698
:100E0000E078821DA11C284603F02FFDE078801DAC
:100E1000461920783070208800127070E078083011
:100E200070BD10B504462046FFF737FA10BD70B507
:100E300004460D4621462846FFF71EFA70BD2DE9EF
:100E4000F04781460E4690461F464846FFF706FF8C
:100E500005464846FFF7FBFE04464FF0000A002017
:100E60002070E0780A2811D2DFE800F00506113082
:100E70002838404D5E7F00BFFE2E07D10220E07073
:100E80000020E870AE702846FFF7CBFF91E0207895
:100E900050B16078401C6070A078401CA0700020A9
:100EA00020700120E07008E0EE70002020713146D3
:100EB0002846FFF7BCFF0420E0707AE02E7131462F
:100EC0002846FFF7B4FF0320E07072E06E713146F0
:100ED0002846FFF7ACFF0520E0706AE0AE713146AE
:100EE0002846FFF7A4FF0620E07062E0EE7131466D
:100EF0002846FFF79CFFE87810B90820E07001E071
:100F00000720E07055E02179481C207105F10800A8
:100F1000465431462846FFF78AFF2079E97888420F
:100F200001D10820E07044E0E8794C4A115C284681
:100F3000FFF77DFF2878B04210D0A078401CA07049
:100F4000002020700120E070FE2E0DD10220E07004
:100F50000020E8702846FFF764FF05E00920E070F4
:100F6000217905F10800465423E02888B6EB202FAC
:100F700010D0A078401CA070002020700120E070EC
:100F8000FE2E15D10220E0700020E8702846FFF701
:100F900048FF0DE001202070E0702079401C05F131
:100FA00008010E544FF488722946404603F05DFC58
:100FB00000BF00BF0AF1010A2078012808D1287972
:100FC0006071208908B9002060812089401C20813F
:100FD0006079401C787120893881A0787881002060
:100FE000A0702078BDE8F0872DE9F04F8446884650
:100FF00016461F46DDE909944346E2463A46314625
:10100000002F01DD481EC1B22FE0C2F10800C0B2BE
:10101000984201DBDDB202E0C2F10800C5B2605CBB
:10102000C5F1080E4FF0FF0B4BFA0EFB00EA0B0068
:10103000605414F801B00020A84000EA0A004BEA0E
:10104000000B04F801B05019C2B2581B83B207E07C
:1010500066000020960000205C0000200E80000842
:10106000002B02DD481CC1B20022002BCDDC89F828
:101070000020072A01D0481CC1B2881BC0B2BDE8BD
:10108000F08F00F067FB00F049FB4FF4A06000F028
:101090004BFC4FF4614000F0D6FB4FF4614000F090
:1010A00087FA40F2CF2140F2E73000F007FB40F230
:1010B000FF123B493B4800F0DBF940F2FF123A498E
:1010C0003A4800F0D5F9002039490870487039498C
:1010D0000871022008800120487100221821104662
:1010E00003F08EF941F2883000F071FB00221C21E0
:1010F000104603F085F914E02F48007878B90022F3
:101100001146104603F07CF901202B4908702B484A
:10111000006808B9012000E000202849086003F0B9
:1011200011FBE9E710B50121254802F0E8F8B0B35A
:101130000121234802F0F4F822480068401C2149AC
:101140000860084600680521B0FBF1F201FB1200BF
:1011500010B900201C4908701A4800680A21B0FB29
:10116000F1F201FB1200D0B918480068401C174981
:1011700008600020164908701448007800F001004B
:1011800010B9002013490870104800680A21B0FB0C
:10119000F1F201FB120010B900200749087010BDE0
:1011A000F0040020E4040020EF140020D804002004
:1011B0005C000020500000200C000020B4012242FE
:1011C000000400400800002011000020040000205E
:1011D0000E0000200D000020704700BFFEE700BF9A
:1011E000FEE700BFFEE700BFFEE7704770477047AD
:1011F000704700000CB50020019000906C4800681A
:1012000040F480306A49086000BF6948006800F413
:10121000003000900198401C0190009818B9019886
:10122000B0F5A06FF1D16248006800F4003010B151
:101230000120009001E0002000900098012843D197
:101240005C48006840F010005A4908600846006891
:1012500020F0030008600846006840F002000860C3
:10126000534840685249486008464068486008460C
:10127000406840F4806048600846406820F47C1074
:1012800048600846406840F4E81048600846006836
:1012900040F08070086000BF4548006800F00070B2
:1012A0000028F9D04248406820F0030040494860D7
:1012B0000846406840F00200486000BF3C48406873
:1012C00000F00C000828F9D10CBD10B5FFF792FF13
:1012D00010BD10B53648006840F001003449086080
:1012E000084640683449084031494860084600686B
:1012F000324908402E4908600846006820F48020E2
:1013000008600846406820F4FE0048604FF41F0063
:101310008860FFF7DAFF4FF000602949086010BDD0
:1013200010B5002100200022214B5B6803F00C0166
:1013300021B1042906D0082928D107E0214B224CED
:10134000236027E01F4B204C236023E0184B5B6891
:1013500003F47010164B5B6803F48032022303EB36
:10136000904022B9194B4343174C23600DE0104BBA
:101370005B6803F4003323B1144B4343124C2360E6
:1013800003E0104B4343104C236003E00D4B0E4C25
:10139000236000BF00BF064B5B68C3F303130C4C14
:1013A000E15C094B1B68CB40074C236010BD00007B
:1013B00000100240002002400000FFF8FFFFF6FE90
:1013C00008ED00E000127A001400002000093D0042
:1013D0001800002002461089D388984201D10020CD
:1013E000704713891068C05C08701089401C80B277
:1013F00010819388984201DB002010810120EFE7E3
:1014000010B502460B46D188481C80B2014694882C
:10141000A04200DB00211089884201D1002010BDCC
:10142000D48810680355D1800120F8E70146CA88A6
:101430000B899A4206DB8A88CB88D21A0B891A4418
:1014400090B203E00A89CB88D21A90B27047014665
:10145000CA880B899A4204DBCA880B89D21A90B2D7
:1014600005E08A880B89D21ACB881A4490B270475B
:1014700030B50B46036082800024C48004810021C3
:1014800004E0002405686C544C1CA1B29142F8DBC6
:1014900030BD70B506460C460CB9002070BD002565
:1014A00007E0715D2948FFF7ABFF601E84B2681C3E
:1014B00085B2002CF5DC012240F22771244800F0AF
:1014C000FCFE0120EAE708B569462248FFF782FFE3
:1014D0009DF8000008BD00B51C48FFF7A7FF00BD40
:1014E00000B51C48FFF7B3FF00BD08B540F2255119
:1014F000174800F0C7FF48B1154800F043FFC0B2DD
:1015000000909DF800101348FFF77AFF40F2277112
:101510000F4800F0B7FFC0B169460C48FFF75AFF0B
:1015200028B19DF800100A4800F028FF03E055217B
:10153000074800F023FF0548FFF789FF28B900227C
:1015400040F22771024800F0B8FE08BDE404002014
:1015500000380140D804002010B540F22551504811
:1015600000F090FF18B34E4800F00CFFC4B24D4895
:101570000078B8B13B2C07D04B490888411C4A4A37
:1015800011804A490C540DE00020464908700120A2
:1015900047490870202244490888411C424B198061
:1015A00042490A54432C02D101203E49087010BD23
:1015B00010B586B004460121082000F03FFD01214E
:1015C000880400F048FD364800F09CFD4FF4806030
:1015D000ADF8100003208DF8120018208DF81300CC
:1015E00004A9344800F06EFA4FF40060ADF8100022
:1015F00004208DF8130004A92E4800F063FA00942B
:101600000020ADF80400ADF80600ADF80800ADF814
:101610000C000C20ADF80A006946214800F0B5FD29
:1016200001211F4800F03DFE012240F225511C48D7
:1016300000F043FE27208DF8140002208DF81500DD
:1016400003208DF8160001208DF8170005A800F082
:1016500070F906B010BD0FB438B505A80090164853
:10166000009A049903F0D0F800200090124803F08B
:10167000DDF885B200240DE000BF4021084800F0ED
:10168000EBFE0028F9D00C48015D054800F076FE1D
:10169000601C84B2AC42EFDB38BC5DF814FB000088
:1016A00000480040290000202C000020EE240020EB
:1016B00028000020000C0140842500207FB505464D
:1016C0000C460121022000F0C6FCADF80850ADF830
:1016D00004400020ADF80A00ADF8060001A90E484C
:1016E00000F0E8FF012211460B4801F05AFB1D20D3
:1016F0008DF8000000208DF8010003208DF8020015
:1017000001208DF80300684600F013F9012102481A
:1017100001F02CFB7FBD00000004004008B5012152
:10172000182000F08BFC4FF40050ADF800001020A2
:101730008DF8030003208DF802006946044800F08C
:10174000C1F94FF40051024800F069FA08BD0000E9
:101750000010014010B56FF0040000F034F92E487D
:1017600000682E49B0FBF1F02D490870084600785A
:1017700000EB4001C1EBC0104FF6FF7101EAC00061
:101780002849088010BD0146254A12784A434FF087
:10179000E0235A6100229A611A46126942F001025E
:1017A0001A6100BF4FF0E022106900F001021AB187
:1017B00000F48032002AF5D04FF0E022126922F0C6
:1017C00001024FF0E0231A6100229A61704701463E
:1017D000144A12884A434FF0E0235A6100229A616A
:1017E0001A46126942F001021A6100BF4FF0E0226E
:1017F000106900F001021AB100F48032002AF5D01D
:101800004FF0E022126922F001024FF0E0231A614A
:1018100000229A61704700001400002000127A0034
:101820002E00002030000020014600BF704700BF9E
:101830002B4A128802F04002002AF9D0C2B2284B8B
:101840001B1D1A80704710B586B00446012144F272
:10185000040000F0F3FB4FF40070ADF81400032017
:101860008DF8160018208DF8170005A91D4800F006
:1018700029F94FF48060ADF8140004208DF81700AA
:1018800005A9184800F01EF925208DF80000032056
:101890008DF801008DF8020001208DF803006846E4
:1018A00000F047F801940020ADF80800ADF80A00F8
:1018B000ADF80C00ADF810000C20ADF80E0001A939
:1018C000074800F062FC012240F22551044800F074
:1018D000F4FC0121024800F0E4FC06B010BD000059
:1018E0000038014000080140094880470948004786
:1018F000FEE7FEE7FEE7FEE7FEE7FEE7FEE7FEE7C0
:10190000FEE7FEE704480549054A064B704700001C
:10191000D312000831010008C82D0020C833002070
:10192000C82F0020C82F002031490143314A1160DF
:10193000704770B5002100230F22C47804B32D4CEA
:10194000246804F4E064C4F5E064210AC1F10403EE
:10195000CA40447804FA03F1847814402143090111
:10196000254C0678A155047804F01F050124AC40ED
:1019700005786D11AD0005F1E025C5F8004109E0DD
:10198000047804F01F050124AC401C4D0678761144
:1019900045F8264070BD1A4A0A400243154B1B1FEA
:1019A0001A60704739B1134A121D12680243114B75
:1019B0001B1D1A6006E00F4A121D126882430D4B70
:1019C0001B1D1A607047042808D14FF0E0210969F7
:1019D00041F004014FF0E022116107E04FF0E021F7
:1019E000096921F004014FF0E02211617047000005
:1019F0000000FA050CED00E000E400E080E100E00A
:101A000080FFFF1F10B50446CC48844208D1012155
:101A1000042000F02DFB0021042000F029FB46E00B
:101A2000C748844208D10121082000F021FB002191
:101A3000082000F01DFB3AE0C248844208D1012191
:101A4000102000F015FB0021102000F011FB2EE00B
:101A5000BD48844208D10121202000F009FB00216B
:101A6000202000F005FB22E0B848844208D1012183
:101A7000402000F0FDFA0021402000F0F9FA16E0C5
:101A8000B348844208D10121802000F0F1FA0021FE
:101A9000802000F0EDFA0AE0AE48844207D101212F
:101AA000801500F0E5FA0021A01500F0E1FA10BD64
:101AB00010B50121084600F0DBFA0021012000F0FA
:101AC000D7FA10BD2DE9F04102460025002600207E
:101AD00000230024002791F803C00CF00F0591F8B3
:101AE00003C00CF0100CBCF1000F03D091F802C041
:101AF0004CEA050591F800C0BCF1000F31D0146824
:101B000000202BE04FF0010C0CFA00F3B1F800C0FC
:101B10000CEA03069E4220D183004FF00F0C0CFA12
:101B200003F7BC4305FA03FC4CEA040491F803C034
:101B3000BCF1280F06D14FF0010C0CFA00FCC2F8E2
:101B400014C00AE091F803C0BCF1480F05D14FF072
:101B5000010C0CFA00FCC2F810C0401C0828D1D3BC
:101B60001460B1F800C0BCF1FF0F34DD54680020F0
:101B70002EE000F1080C4FF0010808FA0CF3B1F860
:101B800000C00CEA03069E4221D183004FF00F0CE7
:101B90000CFA03F7BC4305FA03FC4CEA040491F881
:101BA00003C0BCF1280F05D100F1080C08FA0CF8AD
:101BB000C2F8148091F803C0BCF1480F07D100F1BE
:101BC000080C4FF0010808FA0CF8C2F81080401C0D
:101BD0000828CED35460BDE8F0814FF6FF71018034
:101BE000022181700421C170704702460020936871
:101BF0000B400BB1012000E00020704701468868CF
:101C000080B2704702460020D3680B400BB1012020
:101C100000E0002070470146C86880B2704701614B
:101C20007047416170470AB1016100E0416170474E
:101C3000C16070474FF480320A43826181618261E2
:101C400082698269704702460020434B18684FF64C
:101C50008073184040EA021008433F4B18607047F9
:101C60003E49C8617047F0B50A46002300240021B0
:101C7000002500F00046B6F1004F02D1364EF16962
:101C800001E0354E7168C0F3034583B200F440169D
:101C9000B6F5401F08D121F070612F4E766826F00E
:101CA00070662D4F7E6012E000F48016B6F5801F3E
:101CB00006D1032606FA05F4A14341F0706106E05F
:101CC000460D360103FA06F6B14341F0706122B1C8
:101CD000460D360103FA06F6314300F00046B6F130
:101CE000004F02D11C4EF16101E01B4E7160F0BD4E
:101CF00030B500228B071C0F0F2303FA04F2164B9A
:101D000008338C1053F824309343134C08348D104F
:101D100044F8253023468C1053F824308C07240FC8
:101D200000FA04F423430C4C08348D1044F8253099
:101D300030BD0A49DC3108607047000000080140EE
:101D4000000C014000100140001401400018014047
:101D5000001C014000200140000001400000204222
:101D6000DF48006840F00100DD490860084640682F
:101D7000DC490840DA49486008460068DA4908400A
:101D8000D74908600846006820F4802008600846AB
:101D9000406820F4FE0048604FF41F0088607047E0
:101DA000CF49096821F48031CD4A11601146096894
:101DB00021F480211160B0F5803F03D0B0F5802F71
:101DC0000ED106E0C649096841F48031C44A116069
:101DD00007E0C349096841F4A021C14A116000E04D
:101DE00000BF00BF704710B501460022002300204D
:101DF0004A11012A02D1BA4C236806E0022A02D114
:101E0000B74C236A01E0B64C636A01F01F0201245B
:101E100094401C400CB1012000E0002010BD38B5FA
:101E2000002000900024002500BF3120FFF7DBFFD9
:101E300005460098401C00900098B0F5A06F01D0B6
:101E4000002DF2D03120FFF7CEFF08B1012400E0D1
:101E50000024204638BD01460020A14A106820F029
:101E6000F80040EAC10010607047A0490860704760
:101E7000024600209A4B586820F47C1042EA010385
:101E80001843974B58607047984908667047014659
:101E90000020934A506820F00300084350607047C8
:101EA0008F48406800F00C007047014600208C4AC3
:101EB000506820F0F0000843506070470146002051
:101EC000874A506820F4E06008435060704701463C
:101ED0000020834A506820F4605040EAC1005060FE
:101EE000704729B17E4A527A02437D4B5A7204E010
:101EF0007B4A527A82437A4B5A7270477B49D83177
:101F00000860704701460020754A506820F4404040
:101F10000843506070470021714A20321170704AA6
:101F200082F82010012802D004280AD104E00121FF
:101F30006B4A2032117005E00521694A2032117088
:101F400000E000BF00BF70476949086070476449FE
:101F5000096A0143624A1162704765494439086061
:101F6000704730B500210022002400235C4D6D68CD
:101F700005F00C0121B1042905D0082923D105E081
:101F80005C4D056022E05B4D05601FE0544D6D68BF
:101F900005F47012524D6D6805F48034022505EB8E
:101FA00092421CB9544D554305600BE04C4D6D6891
:101FB00005F400351DB1504D5543056002E04D4D0F
:101FC0005543056002E04B4D056000BF00BF444D26
:101FD0006D6805F0F0010909484D6B5C0568DD404E
:101FE00045603F4D6D6805F4E061090A434D6B5C47
:101FF0004568DD4085603A4D6D6805F46051C90A59
:102000003E4D6B5C4568DD40C560354D6D6805F43F
:102010004041890B3A4D6B5CC568B5FBF3F5056132
:1020200030BD29B12E4A526902432D4B5A6104E05A
:102030002B4A526982432A4B5A61704729B1284A78
:1020400092690243264B9A6104E0254A92698243D1
:10205000234B9A61704729B1214AD2690243204B30
:10206000DA6104E01E4AD26982431D4BDA6170478F
:1020700029B11B4AD2680243194BDA6004E0184ABE
:10208000D2688243164BDA60704729B1144A12694C
:102090000243134B1A6104E0114A12698243104B48
:1020A0001A61704712494039086070470F49C86487
:1020B00070470B49C87170470948406A40F080700A
:1020C00007494862704701460020054A92680A4065
:1020D0000AB1012000E00020704701498872704772
:1020E000001002400000FFF8FFFFF6FE0000424231
:1020F0008004424200127A0000093D0032000020B4
:102100004200002010B50446FB48844209D1012159
:102110008803FFF7ADFF00214FF48040FFF7A8FFD1
:1021200032E0F648844209D101214804FFF7ADFFAF
:1021300000214FF40030FFF7A8FF25E0F04884426B
:1021400009D101218804FFF7A0FF00214FF480206E
:10215000FFF79BFF18E0EB48844209D10121C80436
:10216000FFF793FF00214FF40020FFF78EFF0BE0F5
:10217000E548844208D101210805FFF786FF0021C8
:102180004FF48010FFF781FF10BD2DE9F04786B0B6
:1021900005460E460024A24600BFA1460027B0898E
:1021A00000B100BF2F462C8A4CF6FF700440F08827
:1021B00004432C82AC894EF6F3100440B088318978
:1021C0000843718908430443AC81AC8A4FF6FF4051
:1021D0000440B0890443AC8201A8FFF7C2FEC648A0
:1021E000874202D1DDF810A001E0DDF80CA0A8893B
:1021F00000F4004040B10AEBCA0000EB0A1031685D
:102200004900B0FBF1F807E00AEBCA0000EB0A1046
:1022100031688900B0FBF1F86420B8FBF0F00401EC
:102220002009642101FB1089A88900F4004040B115
:10223000322000EBC900B0FBF1F000F007000443CE
:1022400008E0322000EB09106421B0FBF1F000F04F
:102250000F0004432C8106B0BDE8F0874FF41651FF
:10226000016000218180C18001810C214181002118
:102270008181704710B502460020108A4FF2FF039B
:1022800018400B884C8823438C882343CC882343F5
:102290001843108210BD0021018041808180C180DF
:1022A000704721B1828942F40052828104E0828920
:1022B0004DF6FF731A4082817047F0B50346002443
:1022C00000260025002040F66A17B94200D100BF61
:1022D0001846C1F3421401F01F06012707FA06F55C
:1022E000012C01D10C3004E0022C01D1103000E0AF
:1022F00014301AB107682F43076002E00768AF4344
:102300000760F0BD1AB1838A0B43838202E0838A9F
:102310008B4383827047028A4FF6F0731A40028221
:10232000028A0A430282704782894FF2FF731A4081
:10233000828182890A438281704721B1828942F079
:102340000202828104E082894FF6FD731A40828185
:102350007047028A4FF6DF731A400282028A0A43EC
:102360000282704721B1028A42F48042028204E074
:10237000028A4BF6FF731A4002827047C1F30802CB
:102380008280704701468888C0F3080070478189C1
:1023900041F0010181817047028BD2B20283028B2E
:1023A00042EA012202837047028B02F47F420283D9
:1023B000028B0A430283704721B1828A42F02002D5
:1023C000828204E0828A4FF6DF731A40828270476D
:1023D00021B1828A42F01002828204E0828A4FF6A2
:1023E000EF731A408282704721B1828A42F008025C
:1023F000828204E0828A4FF6F7731A408282704725
:1024000021B1828942F40042828103E08289C2F3D1
:102410000E028281704721B1828A42F40062828278
:1024200004E0828A4FF2FF731A4082827047828AE8
:102430004FF6FB731A408282828A0A438282704777
:1024400021B1828A42F00202828204E0828A4FF63F
:10245000FD731A408282704702460020B1F5007F6A
:1024600000D100BF13880B400BB1012000E0002019
:10247000704701F40072B2F5007F00D100BFCA437B
:102480000280704770B5024600240023002500201A
:1024900040F66A16B14200D100BFC1F3421501F007
:1024A0001F03012606FA03F3012D02D1968933405A
:1024B00006E0022D02D1168A334001E0968A3340AD
:1024C0000C12012606FA04F41688344013B10CB13C
:1024D000012000E0002070BD10B50022002340F66E
:1024E0006A14A14200D100BF0A1201249440A3B291
:1024F000DC43048010BD000000380140004400406F
:1025000000480040004C00400050004010B5044618
:10251000FE48844208D10121C014FFF7A9FD002123
:10252000E014FFF7A5FDC4E0B4F1804F08D101210C
:102530000846FFF7AAFD00210120FFF7A6FDB8E03D
:10254000F348844208D101210220FFF79EFD0021BB
:102550000220FFF79AFDACE0EE48844208D1012149
:102560000420FFF792FD00210420FFF78EFDA0E07C
:10257000E948844208D101210820FFF786FD0021A7
:102580000820FFF782FD94E0E448844208D101214D
:102590001020FFF77AFD00211020FFF776FD88E07C
:1025A000DF48844208D101212020FFF76EFD002181
:1025B0002020FFF76AFD7CE0DA48844208D101213F
:1025C0004014FFF755FD00216014FFF751FD70E046
:1025D000D548844209D10121C804FFF749FD0021F3
:1025E0004FF40020FFF744FD63E0D048844209D156
:1025F00001210805FFF73CFD00214FF48010FFF793
:1026000037FD56E0CA48844209D101214805FFF749
:102610002FFD00214FF40010FFF72AFD49E0C548C7
:10262000844208D101214020FFF72FFD00214020E6
:10263000FFF72BFD3DE0C048844208D101218020F6
:10264000FFF723FD00218020FFF71FFD31E0BB488D
:10265000844208D101218015FFF717FD0021A01544
:10266000FFF713FD25E0B648844209D10121080493
:10267000FFF7FEFC00214FF48030FFF7F9FC18E073
:10268000B048844209D101214804FFF7F1FC002140
:102690004FF40030FFF7ECFC0BE0AB48844208D16C
:1026A00001218804FFF7E4FC00214FF48020FFF7AC
:1026B000DFFC10BD00220288944B98420ED0994B4B
:1026C00098420BD0B0F1804F08D0914B984205D082
:1026D000904B984202D0904B984204D14FF68F73A2
:1026E0001A404B881A438D4B984207D08C4B984226
:1026F00004D04FF6FF431A40CB881A4302808B88E0
:1027000083850B880385814B98420BD0854B98427B
:1027100008D08B4B984205D08A4B984202D08A4B06
:10272000984201D10B7A038601238382704770B5EA
:10273000002400220023058C4FF6FE7635400584E8
:10274000028C8388048B4FF68F752C40B51E2C406D
:102750000D882C43751E2A400D892A434D882A4333
:102760006A4DA8420BD06F4DA84208D0744DA842C4
:1027700005D0744DA84202D0734DA84213D14FF634
:10278000F7752A404D892A434FF6FB752A408D88FC
:102790002A434FF6FF652B404FF6FF552B408D899E
:1027A0002B43CD892B4383800483CD888586028487
:1027B00070BD70B5002400220023058C4FF6EF7623
:1027C00035400584028C8388048B48F6FF752C40C5
:1027D0004FF6FF452C400D884FF6FF7606EA05259B
:1027E0002C434FF6DF752A400D8906EA05152A436A
:1027F0004D8806EA05152A43444DA84202D0494DAA
:10280000A8421DD14FF67F752A404D894FF6FF76BD
:1028100006EA05152A434FF6BF752A408D8806EA59
:1028200005152A434FF6FF352B404FF2FF752B401D
:102830008D8906EA85052B43CD8906EA85052B435C
:1028400083800483CD880587028470BD70B5002421
:1028500000220023058C4FF6FF6635400584028C6C
:102860008388848B4FF68F752C404FF6FC752C4077
:102870000D882C434FF6FF552A400D894FF6FF7601
:1028800006EA05252A434D8806EA05252A431F4DF9
:10289000A84202D0234DA8421DD14FF2FF752A4015
:1028A0004D894FF6FF7606EA05252A434FF6FF3598
:1028B0002A408D8806EA05252A434EF6FF752B40EF
:1028C0004DF6FF752B408D8906EA05152B43CD8902
:1028D00006EA05152B4383808483CD88858702848F
:1028E00070BD70B5002200230024058C4EF6FF76E3
:1028F00035400584038C8488828B48F6FF752A4016
:102900004FF6FF452A400D8820E00000002C0140D2
:102910000004004000080040000C0040001000408F
:102920000014004000340140004C014000500140C0
:102930000054014000180040001C004000200040EE
:102940000040014000440140004801404FF6FF763E
:1029500006EA05252A434DF6FF752B400D8906EA48
:1029600005352B434D8806EA05352B43FA4DA84221
:1029700002D0FA4DA84208D14BF6FF752C408D8944
:102980004FF6FF7606EA85152C4384808283CD8836
:10299000A0F84050038470BD828B4FF2FF331A4081
:1029A0008283828B4FF6FF7303EA01231A438283EB
:1029B0007047F0B50C461546002200210026078C12
:1029C0004EF6FF7C07EA0C070784828B018C4FF6DA
:1029D000FF7707EA043640F6FF473A404FF6FF77A5
:1029E00007EA05273A434FF6FF7707EA03373A43EA
:1029F000D94FB8420ED0D94FB8420BD0B0F1804F6A
:102A000008D0D74FB84205D0D64FB84202D0D64FE3
:102A1000B84206D14DF6FF77394046F48057394326
:102A200005E047F6FF57394044F480573943828325
:102A30000184F0BD828B4FF6F3731A408283828B40
:102A40000A4382837047F0B50C46154600220021E8
:102A50000026078C4FF6FF6C07EA0C070784828B71
:102A6000018C4FF6FF7707EA04264FF60C773A40C1
:102A70004FF6FF7707EA03172F433A43B64FB842A2
:102A80000ED0B64FB8420BD0B0F1804F08D0B44F43
:102A9000B84205D0B34FB84202D0B34FB84206D1C6
:102AA0004FF6FF57394046F48077394305E04FF23F
:102AB000FF57394044F48077394382830184F0BD65
:102AC000028B4FF2FF331A400283028B4FF6FF73E3
:102AD00003EA01231A4302837047F0B50C461546FA
:102AE000002200210026078C4FF6EF7C07EA0C0736
:102AF0000784028B018C4FF6FF7707EA041640F635
:102B0000FF473A404FF6FF7707EA03373A434FF65D
:102B1000FF7707EA05273A438F4FB8420ED08F4F11
:102B2000B8420BD0B0F1804F08D08D4FB84205D0DD
:102B30008C4FB84202D08C4FB84206D14FF6DF77A7
:102B4000394046F01007394305E04FF65F773940CA
:102B500044F01007394302830184F0BD028B4FF625
:102B6000F3731A400283028B0A4302837047F0B565
:102B70000C46154600220021068C4FF6FE773E409B
:102B80000684028B018C4FF60C7632407E1C06EADE
:102B900003162E433243704EB0420ED06F4EB042F9
:102BA0000BD0B0F1804F08D06D4EB04205D06D4EC5
:102BB000B04202D06C4EB04206D14FF6FD763140A5
:102BC00044F00106314305E04FF6F576314044F01C
:102BD0000106314302830184F0BD70B505460C4601
:102BE0005D4885420ED05D4885420BD0B5F1804FDF
:102BF00008D05B48854205D05A48854202D05A48E1
:102C0000854200D100E000BF208850B92389A28806
:102C100061882846FFF7ABFFE1882846FFF79EFF53
:102C200025E0208804280AD12389A28861882846C3
:102C3000FFF753FFE1882846FFF742FF17E020889F
:102C400008280AD12389A28861882846FFF7FBFE5D
:102C5000E1882846FFF7EEFE09E02389A288618813
:102C60002846FFF7A6FEE1882846FFF795FE70BDCF
:102C70002DE9F04105460C4600260127608808B979
:102C8000022600E00026A088012801D1022700E0EA
:102C900001272088A0B92389A28861882846FFF7E8
:102CA00066FFE1882846FFF759FF23893A463146F7
:102CB0002846FFF712FFE1882846FFF701FF13E0DF
:102CC0002389A28861882846FFF707FFE188284604
:102CD000FFF7F6FE23893A4631462846FFF747FFBD
:102CE000E1882846FFF73AFFBDE8F0810A884B8863
:102CF0001A438B881A43CB881A430B891A434B8992
:102D00001A438B891A43A0F8442070474FF6FF718D
:102D1000818000210180C1804180017270470021C3
:102D2000018041808180C180018141818181C18197
:102D30007047002101804180012181800021C180F4
:102D4000018170470021018041808180C180018123
:102D50004181818170470000002C01400034014016
:102D60000004004000080040000C004021B102882F
:102D700042F00102028004E002884FF6FE731A401E
:102D80000280704731B1B0F8442042F40042A0F80C
:102D9000442005E0B0F84420C2F30E02A0F844201D
:102DA00070471AB183890B43838102E083898B4387
:102DB000838170478182704741EA0203A0F848305E
:102DC00070471AB183890B43838102E083898B4367
:102DD0008381704701894FF6F87211400181704775
:102DE0000A46002101894FF68F7319401143018172
:102DF000704730B504460D4629462046FFF7F0FFE0
:102E0000208940F00700208130BD2DE9F0410446C3
:102E10000D4616461F46602D06D13B46012231461F
:102E20002046FFF75AFE05E03B4601223146204688
:102E3000FFF79DFE29462046FFF7D2FF208940F08C
:102E400007002081BDE8F08130B50C4600210189E2
:102E5000C9B24FF6FF7505EA0325154325432943FB
:102E6000018130BD2DE9F04105460E4617469846D2
:102E7000002443463A4631462846FFF7E5FF2C89B1
:102E80004FF6F870044044F007044FF68F7004408A
:102E900044F070042C81BDE8F081F0B504460D4685
:102EA00016461F463B46324629462046FFF7CCFFD2
:102EB000208940F480402081F0BD018582827047E6
:102EC0000A46002101884FF68F7319401143018093
:102ED0007047F0B50C4615461E460021002200231F
:102EE0000189028B038C4FF6F877394021434FF666
:102EF000FC473A4040F201173A434FF6DD773B403A
:102F00004FF6FF7707EA06172F433B430181028301
:102F10000384F0BD0A460021018B4FF68F731940E0
:102F20001143018370470A460021018B48F6FF7365
:102F300019404FF6FF7303EA0223194301837047D8
:102F40000A460021818B4FF68F731940114381830C
:102F500070470A460021818B48F6FF7319404FF6EF
:102F6000FF7303EA022319438183704721B102886A
:102F700042F08002028004E002884FF67F731A401C
:102F80000280704721B1828842F00402828004E00E
:102F900082884FF6FB731A408280704721B1828885
:102FA00042F00802828004E082884FF6F7731A40EC
:102FB0008280704721B1828842F00102828004E061
:102FC00082884FF6FE731A40828070470A460021BD
:102FD000018B4FF6F77319401143018370470A467E
:102FE0000021018B4FF2FF7319404FF6FF7303EA84
:102FF00002231943018370470A460021818B4FF653
:10300000F77319401143818370470A460021818B71
:103010004FF2FF7319404FF6FF7303EA022319437F
:10302000818370470A460021018B4FF6FB731940DC
:103030001143018370470A460021018B4FF6FF338D
:1030400019404FF6FF7303EA0223194301837047C7
:103050000A460021818B4FF6FB731940114381838F
:1030600070470A460021818B4FF6FF3319404FF617
:10307000FF7303EA02231943818370470A46002144
:10308000018B4FF67F7319401143018370470A4645
:103090000021018BC1F30E014FF6FF7303EA0223F7
:1030A0001943018370470A460021818B4FF67F73D5
:1030B00019401143818370470A460021818BC1F377
:1030C0000E014FF6FF7303EA022319438183704711
:1030D0000A460021018C4FF6FD731940114301840B
:1030E00070470A460021018C4FF6F77319401143CF
:1030F000018470470A460021018C4FF6DF731940A6
:103100004FF6FF7303EA02131943018470470A461E
:103110000021018C4FF67F7319404FF6FF7303EACD
:1031200002131943018470470A460021018C4FF6AF
:10313000FF5319404FF6FF7303EA0223194301843A
:1031400070470A460021018C4FF2FF7319404FF679
:10315000FF7303EA02231943018470470A460021E2
:10316000018C4DF6FF7319404FF6FF7303EA0233EB
:1031700019430184704730B5002301248C40A3B269
:10318000048C9C430484048C02FA01F5ADB22C43F8
:10319000048430BD30B5002304248C40A3B2048CD9
:1031A0009C430484048C02FA01F5ADB22C430484E0
:1031B00030BD70B5034600200024184618300125A4
:1031C0008D40ACB21D8CA5431D8409B1082909D1DD
:1031D00000EB6100056825F0700505600568154382
:1031E00005600EE00D1FC5F34E052844056825F463
:1031F000E045056005684FF6FF7606EA022635438E
:10320000056070BD21B1028842F00202028004E034
:1032100002884FF6FD731A400280704721B1028880
:1032200042F00402028004E002884FF6FB731A4069
:103230000280704721B1828842F08002828004E0DF
:1032400082884FF67F731A408280704702884FF65B
:10325000F7731A40028002880A430280704782880E
:103260004FF68F731A40828082880A4382807047AB
:1032700002894FF6F8731A40028102890A430281DB
:10328000704702894FF67F731A40028102890A4310
:1032900002817047818470478185704781867047BD
:1032A0000187704781877047A0F8401070470288F7
:1032B0004FF6FF431A40028002880A43028070479B
:1032C0000146888E70470146088F70470146888FF7
:1032D00070470146B1F8400070470146888C70473E
:1032E0000146088D704702460020138A0B400BB13F
:1032F000012000E000207047CA430282704730B5C9
:103300000246002000230024158A05EA010395895E
:1033100005EA010413B10CB1012000E0002030BD2A
:10332000CA4302827047000002460B7883EA02001B
:1033300080EA0013D8B20B881B1283EA002383EAC9
:10334000C00383EA20130B8070474FF6FF710180A2
:10335000704738B504460D466846FFF7F6FF04E0AF
:1033600014F8010B6946FFF7DFFF281EA5F10101E4
:103370008DB2F5D1BDF8000038BD2DE9F04104460D
:103380000D4616462F4604E017F8010B2146FFF7BD
:10339000CBFF301EA6F101018EB2F5D1BDE8F08160
:1033A0002DE9F04F93B083468A46DBF8000004F025
:1033B000F3F904460D46DBF8040004F0EDF9064687
:1033C0000F46DBF8080004F0E7F980468946DBF891
:1033D0000C0004F0E1F9CDE9100122462B4620460D
:1033E000294603F0FFFECDE90E0132463B4630464A
:1033F000394603F0F7FECDE90C0142464B46404604
:10340000494603F0EFFECDE90A01DDE9102310463D
:10341000194603F0E7FECDE90801DDE90C23DDE9FB
:103420000E0103F07DFCCDE90201DDE90A2304F081
:10343000C9F8CDE90401DDE9082304F0C3F8CDE9BA
:10344000060103F03BFCCAF8000020462946DDE9EE
:10345000102303F0C7FE42464B46CDE90201304639
:10346000394603F0BFFECDE90001DDE9022304F097
:10347000A9F800224FF08043CDE9040103F0B2FE29
:10348000CDE9060103F01AFCCAF8040030463946BB
:10349000DDE9102303F0A6FE42464B46CDE90201CA
:1034A0002046294603F09EFECDE90001DDE9022316
:1034B00003F036FC00224FF08043CDE9040103F015
:1034C00091FECDE9060103F0F9FBCAF80800204699
:1034D0002946DDE9102303F085FE42464B46CDE93F
:1034E00002013046394603F07DFECDE90001DDE9F9
:1034F000022303F015FC00224FF08043CDE90401C4
:1035000003F070FECDE9060103F0D8FBCAF80C0009
:10351000DDE90C23DDE90E0104F054F8CDE90201E8
:10352000DDE90A2303F0FCFBCDE90401DDE9082312
:1035300004F048F8CDE9060103F0C0FBCAF810001A
:1035400032463B462046294603F04CFECDE90201B7
:1035500040464946DDE9102303F044FECDE9000171
:10356000DDE9022304F02EF800224FF08043CDE97C
:10357000040103F037FECDE9060103F09FFBCAF812
:10358000140042464B462046294603F02BFECDE967
:10359000020130463946DDE9102303F023FECDE970
:1035A0000001DDE9022304F00DF800224FF0804312
:1035B000CDE9040103F016FECDE9060103F07EFB20
:1035C000CAF8180040464946DDE9102303F00AFE18
:1035D00032463B46CDE902012046294603F002FE71
:1035E000CDE90001DDE9022303F09AFB00224FF050
:1035F0008043CDE9040103F0F5FDCDE9060103F0B8
:103600005DFBCAF81C00DDE90C23DDE90E0103F0C7
:10361000D9FFCDE90201DDE90A2303F0D3FFCDE9AB
:103620000401DDE9082303F07BFBCDE9060103F08B
:1036300045FBCAF8200013B0BDE8F08F2DE9FF5F0D
:1036400004460F4690469946A06980F0004B5846C4
:1036500004F0A2F8CDE9000102F0C4FFCDE90201B7
:1036600003F02CFB82460020FE4902F0BBFFCDE9AF
:10367000000103F023FB8346514604F020FB20F0B9
:103680000040F949039004F0E9F913D200252169BB
:10369000A06804F0ADF803906168606904F0A2FBD3
:1036A0000290039903F0D6F88346294604F0A0F867
:1036B000064630E00020EB4902F094FFCDE900011E
:1036C00003F0FCFA8346514604F092F820F00040E3
:1036D000E549039004F0C2F913D200252169A068DE
:1036E00004F086F82946029004F07CFB834661686A
:1036F000606904F077FB5946039003F0ABF8064687
:1037000009E0D4E9070103F0A5F805462168E0685F
:1037100003F0A0F806463D60C8F800A0C9F80060B4
:10372000BDE8FF9FF0B589B004460D4616461F461A
:1037300069462046FFF734FE3B4632462946684636
:10374000FFF77CFF09B0F0BD2DE9FF4F8FB08B462E
:103750009A460F9804F020F800224FF08043CDE9FC
:10376000040103F08DFBCDE9060103F0A1F9044645
:103770000D460F9804F010F800224FF08043CDE979
:10378000040103F07DFBCDE9060103F0DFF90646F5
:103790000F46584604F000F800224FF08043CDE970
:1037A000040103F06DFBCDE9060103F081F98046C9
:1037B0008946584603F0F0FF00224FF08043CDE9E0
:1037C000040103F05DFBCDE9060103F0BFF9CDE98B
:1037D0000C01119803F0E0FF00224FF08043CDE987
:1037E000040103F04DFBCDE9060103F061F9CDE9D9
:1037F0000A01119803F0D0FF00224FF08043CDE979
:10380000040103F03DFBCDE9060103F09FF9CDE98A
:10381000080130463946DDE90C2303F0E3FCCDE92D
:103820000001DDE9082303F0DDFC42464B46CDE90B
:1038300004012046294603F0D5FCCDE90001DDE96D
:103840000A2303F0CFFCCDE90201DDE9042303F0F4
:1038500067FACDE9060103F031FACAF80000204604
:103860002946DDE90C2303F0BDFCCDE90001DDE9CB
:10387000082303F0B7FC42464B46CDE9040130462D
:10388000394603F0AFFCCDE90001DDE90A2303F07E
:10389000A9FCCDE90201DDE9042303F093FECDE9A3
:1038A000060103F00BFACAF8040042464B463046C4
:1038B000394603F097FCCDE90001DDE9082303F068
:1038C00091FCCDE9040120462946DDE90C2303F0F3
:1038D00089FCCDE90001DDE90A2303F083FCCDE991
:1038E0000201DDE9042303F01BFACDE9060103F030
:1038F000E5F9CAF8080030463946DDE90C2303F043
:1039000071FCCDE90001DDE90A2303F06BFC4246BE
:103910004B46CDE904012046294603F063FCCDE97E
:103920000001DDE9082303F05DFCCDE90201DDE9DA
:10393000042303F047FECDE9060103F0BFF9CAF8FE
:103940000C0013B0BDE8F08F2DE9FE4F04460E4683
:103950002169206803F04CFF0546216A03F048FF07
:1039600002900021029804F079F930D24FF07E5194
:10397000029803F03DFF814603F05EF905464FF0E3
:103980007C51284604F09EF8306029464FF07C5068
:1039900003F0A2FF05466169E06904F023FA81465D
:1039A000294604F08FF87060A169A06804F01AFA43
:1039B0008146294604F086F8B0606168E06804F04A
:1039C00011FA8146294604F07DF8F06096E0002562
:1039D0004FF0010911E005EB450204EB820252F8B9
:1039E000251009EB490204EB820252F8290004F089
:1039F00035F900D24D4609F10109B9F1030FEADBAF
:103A0000681C032190FBF1F201FB1207A81C90FB3C
:103A1000F1F201FB120807EB470204EB820252F8B5
:103A2000271005EB450204EB820252F8250004F052
:103A3000D9F9009008EB480004EB800050F82810FA
:103A4000009804F0CFF94FF07E51019003F0D0FEC2
:103A5000834603F0F1F882464FF07C51504604F063
:103A600031F803E00000F03F6F12833A691C46F81A
:103A7000210051464FF07C5003F02EFF824607EBA9
:103A8000470204EB820252F8251005EB450204EBD5
:103A9000820252F8270003F0ABFE8346514604F041
:103AA00011F8791C46F8210005EB450204EB82026F
:103AB00052F8281008EB480204EB820252F8250065
:103AC00003F096FE8346514603F0FCFF08F1010126
:103AD00046F8210007EB470204EB820252F8281057
:103AE00008EB480204EB820252F8270004F07AF94E
:103AF0008346514603F0E6FF306000BFBDE8FE8F0D
:103B00002DE9FF4F8FB08B469A460F9803F044FE85
:103B1000CDE9060102F0CCFF04460D460F9803F0F4
:103B20003BFECDE9060103F011F806460F46584664
:103B300003F032FECDE9060102F0BAFFCDE90C0137
:103B4000584603F029FECDE9060102F0FFFF80464A
:103B50008946119803F020FECDE9060102F0A8FF86
:103B6000CDE90A01119803F017FECDE9060102F034
:103B7000EDFFCDE90801DDE90A23DDE90C0103F0E1
:103B800031FBCDE9060103F099F8CAF8000042467E
:103B90004B463046394603F025FBCDE90001DDE90F
:103BA0000A2303F01FFBCDE9040185F00040CDE9B5
:103BB00000402046DDE90823019903F013FBCDE91D
:103BC0000201DDE9042303F0ABF8CDE9060103F0BF
:103BD00075F8CAF8040042464B462046294603F0D1
:103BE00001FBCDE90001DDE90A2303F0FBFACDE991
:103BF000040130463946DDE9082303F0F3FACDE944
:103C00000201DDE9042303F08BF8CDE9060103F09E
:103C100055F8CAF80800DDE90823DDE90C0103F0D6
:103C2000E1FACDE9060103F049F8CAF80C00424672
:103C30004B463046394603F0D5FACDE90001DDE9BF
:103C4000082303F0CFFACDE9040120462946DDE937
:103C50000A2303F0C7FACDE90201DDE9042303F0EA
:103C60005FF8CDE9060103F029F8CAF810004246D2
:103C70004B462046294603F0B5FACDE90001DDE9BF
:103C8000082303F0AFFACDE9040187F00040CDE945
:103C900000603046DDE90A23019903F0A3FACDE97B
:103CA0000201DDE9042303F03BF8CDE9060103F04E
:103CB00005F8CAF8140089F000414046CDE90681B4
:103CC00002F0FCFFCAF8180030463946DDE90C2343
:103CD00003F088FACDE9060102F0F0FFCAF81C00F3
:103CE00020462946DDE90C2303F07CFACDE90601E4
:103CF00002F0E4FFCAF8200013B0BDE8F08F0146DF
:103D000001EB4100FE4A02EB80007047014601EBE7
:103D10000110FC4A02EB0010704770B504462046C3
:103D2000FFF7EDFF05460120E87070BD2DE9F04773
:103D300004460D4616461F46DDE90889FE20A070A0
:103D400084F803806571A6713846FFF7D8FF807943
:103D500020713846FFF7D3FF8079401C00F0FF0A3E
:103D60003846FFF7CCFF80F806A00521E01CFFF7DE
:103D7000F0FA2080E27804F108012046FFF7FDFA0E
:103D800021464846FFF7D0FA2178E27804F108008E
:103D9000815420880212E078401C04F108010A5482
:103DA00008F10800BDE8F0872DE9FC4105460E4604
:103DB00017461C46DDF8208000233A463146284647
:103DC000CDE90048FFF7B2FFBDE8FC8170B50646BB
:103DD0000C46154629462046FDF75BFB70BD2DE9D4
:103DE000FF4780460E4617461C46DDF83090404699
:103DF000FFF785FF0546FE208DF804008DF805408D
:103E0000A8798DF80600C04800788DF80700BE48F4
:103E100040788DF808008DF80960A879401CA871D9
:103E200005210DF10500FFF794FA0390224639466B
:103E300003A8FFF7A2FA03A94846FFF775FABDF8F1
:103E40000C00C0B28DF80000BDF80C0000128DF817
:103E50000100062201A94046FFF7B8FF2246394675
:103E60004046FFF7B3FF022269464046FFF7AEFF28
:103E7000BDE8FF8738B505460C4620788DF8000070
:103E8000208800128DF801000622A11C2846FFF7A9
:103E90009DFFE27804F108012846FFF797FF022210
:103EA00069462846FFF792FF38BD70B505460C46B7
:103EB000E078821DA11C284600F0D7FCE078801D28
:103EC000461920783070208800127070E078083031
:103ED00070BD10B504462046FFF737FA10BD70B527
:103EE00004460D4621462846FFF71EFA70BD2DE90F
:103EF000F04781460E4690461F464846FFF706FFAC
:103F000005464846FFF7FBFE04464FF0000A002036
:103F10002070E0780A2811D2DFE800F005061130A1
:103F20002838404D5E7F00BFFE2E07D10220E07092
:103F30000020E870AE702846FFF7CBFF91E02078B4
:103F400050B16078401C6070A078401CA0700020C8
:103F500020700120E07008E0EE70002020713146F2
:103F60002846FFF7BCFF0420E0707AE02E7131464E
:103F70002846FFF7B4FF0320E07072E06E7131460F
:103F80002846FFF7ACFF0520E0706AE0AE713146CD
:103F90002846FFF7A4FF0620E07062E0EE7131468C
:103FA0002846FFF79CFFE87810B90820E07001E090
:103FB0000720E07055E02179481C207105F10800C8
:103FC000465431462846FFF78AFF2079E97888422F
:103FD00001D10820E07044E0E8794C4A115C2846A1
:103FE000FFF77DFF2878B04210D0A078401CA07069
:103FF000002020700120E070FE2E0DD10220E07024
:104000000020E8702846FFF764FF05E00920E07013
:10401000217905F10800465423E02888B6EB202FCB
:1040200010D0A078401CA070002020700120E0700B
:10403000FE2E15D10220E0700020E8702846FFF720
:1040400048FF0DE001202070E0702079401C05F150
:1040500008010E544FF488722946404600F005FCD2
:1040600000BF00BF0AF1010A2078012808D1287991
:104070006071208908B9002060812089401C20815E
:104080006079401C787120893881A078788100207F
:10409000A0702078BDE8F0872DE9F04F844688466F
:1040A00016461F46DDE909944346E2463A46314644
:1040B000002F01DD481EC1B22FE0C2F10800C0B2DE
:1040C000984201DBDDB202E0C2F10800C5B2605CDB
:1040D000C5F1080E4FF0FF0B4BFA0EFB00EA0B0088
:1040E000605414F801B00020A84000EA0A004BEA2E
:1040F000000B04F801B05019C2B2581B83B207E09C
:10410000F4280020242900205C0000200E810008F3
:10411000002B02DD481CC1B20022002BCDDC89F847
:104120000020072A01D0481CC1B2881BC0B2BDE8DC
:10413000F08F70B506460C46154624B92946304620
:1041400000F00AFC04E02A462146304600F08DFBD0
:1041500070BD2DE9FF4F8BB00C4615461E4618AFBB
:1041600097E8800FCDF804B01D9802901E98039038
:104170001F98049020980590219806902298079007
:10418000ADF82060ADF822808DF824408DF82550E0
:104190008DF826708DF827908DF828A0FE20252315
:1041A00001AA272100900B98FFF719FE0FB0BDE878
:1041B000F08F2DE9FF47054601240426FE4890F9BB
:1041C0000070102490F90000C01E05280BD2DFE813
:1041D00000F003060504070000BF00BF00BF00BFDA
:1041E00044F0080400BF00BF44F0400444F0010460
:1041F0004FF002084FF00309A24601978DF808809E
:104200008DF809908DF80AA08DF80B6003208DF8C9
:104210000C003220092301AA002100902846FFF754
:10422000DEFD00BFBDE8FF872DE9FE430446E348FD
:1042300005784678E2480779B0F8009090F8058054
:10424000ADF804908DF806508DF807608DF8087071
:104250008DF809809420062301AA4221009020466F
:10426000FFF7BDFD00BFBDE8FE8310B58CB004466E
:10427000D448D549D54A0023CDE9073203930493A6
:1042800005930693CDE909101021CDE90031CB4803
:104290000293427801782046FFF75BFF0CB010BD17
:1042A00010B58CB00446CA488069C9494969C84AF2
:1042B00012690023CDE90732039304930593069313
:1042C000CDE9091010210322C148CDE90113009264
:1042D000838BBA48427801782046FFF73AFF0CB04A
:1042E00010BD2DE9FC410446B44805784678032703
:1042F000ADF804708DF806508DF80760DD200423BA
:1043000001AA2C2100902046FFF769FD00BFBDE8FF
:10431000FC812DE9FC410446A84807784578002631
:104320008DF804708DF805508DF8066099200323F0
:1043300001AA2F2100902046FFF751FD00BFBDE8E4
:10434000FC8170470146002070472DE9F041064688
:104350000D461746FDF7BFF804B23046FFF7F2FFEF
:1043600010B10020BDE8F0811A2D25D005DC5DB12B
:10437000122D11D0182D3FD116E01B2D24D01C2D4D
:104380002AD01D2D38D12FE0092C01DA0020E9E7D1
:104390003046FFF70EFF30E0332C01DA0020E1E772
:1043A0003046FFF7CEFF28E0062C01DA0020D9E7DF
:1043B0003046FFF739FF20E0252C01DA0020D1E755
:1043C0003046FFF752FF18E0252C01DA0020C9E73C
:1043D0003046FFF765FF10E0042C01DA0020C1E74A
:1043E0003046FFF77EFF08E0032C01DA0020B9E732
:1043F0003046FFF78EFF00E000BF00BF0120B1E7AD
:104400002DE9F04780460E46914608EB08107149A9
:1044100001EB400418E094F82000215C4A46404635
:10442000FFF793FF00B913E014F8200F401C207031
:1044300014F82009202802D1002084F8200094F8E4
:104440002100401E84F8210094F821000028E2D1C8
:1044500000BF202E01D1BDE8F087002794F820503E
:104460000AE0605DB04200D1F5E7681CC5B2202DBE
:1044700000D10025781CC7B294F82100B842F0DCC6
:1044800094F8210028B94A4631464046FFF75DFFBF
:10449000A8B994F82100202800D1DCE794F8200086
:1044A00094F821100844C5B2202D02DBA5F12000AC
:1044B000C5B2665594F82100401C84F8210000BF65
:1044C000C9E770B58EB006460C4615463046FFF774
:1044D00039FF08B10EB070BD012C0CD13E480470FC
:1044E00032222946401CFFF724FE002212213046CA
:1044F000FFF786FF12E000BF8DF804403222294604
:104500000DF10500FFF715FE5320332301AAFD210D
:1045100000903046FFF763FC00BF00BF00BFD9E743
:104520002DE9FC5F0446E07923287DD005DC58B1F5
:1045300018287AD01E2879D12AE0282877D02F2869
:1045400076D04A28F7D1AEE0244D092204F10801C3
:10455000284600F0CFF900BF2846006808B920A01F
:104560000CE01E480068042801D120A006E01B488A
:104570000068102801D11FA000E020A0014621A062
:10458000FDF769F81548016821A0FDF764F89DE082
:10459000214D1C2204F10801284600F0ABF900BFB0
:1045A000294688681D4903F08DFA834603F0F4F824
:1045B00007461B4A1B4B3CE0460000205C000020E5
:1045C000500000200000C8420000E2420000084203
:1045D00028280020AF2800207C2800200028002068
:1045E00073746162696C697A65000000677569645B
:1045F00065640000706F73686F6C6400656C736550
:10460000000000000D0A6D6F64653A25730000001C
:104610002025640D0A0000000C280020000034430F
:104620004AD8124DFB2109401DE045E04DE02EE047
:1046300022E002F025FC05460E46504948685049E4
:1046400003F040FA834603F0A7F807464D4A4E4B65
:1046500002F016FC81464A460B464CA0CDE90056B6
:10466000FCF7F9FF32E04E4D162204F1080128460E
:1046700000F040F900BF29E04A4821890180A17A71
:10468000817000BF817848A0FCF7E5FF1EE04B4831
:10469000A168016000BF018849A0FCF7DCFF012090
:1046A0004D49087012E04D4D142204F108012846CE
:1046B00000F020F900BF09E0494D1E2204F1080175
:1046C000284600F017F900BF00E000BF00BF4248D5
:1046D0000078A8B33948008838B90A20FDF777F880
:1046E00000221A211046FFF78BFE3448008801286B
:1046F0000FD13C4988833C4808613C4848613C48AC
:1047000088610A20FDF763F800221B211046FFF79D
:1047100077FE2A48008802280FD13249888335481D
:10472000086135484861354888610A20FDF74FF82F
:1047300000221B211046FFF763FE00202649087067
:10474000BDE8FC9F10B5C8B00020ADF80E000EE02B
:10475000FCF7B9FE044601AB04AA214628480078BC
:10476000FFF7C5FB10B104A8FFF7DAFE00BFFCF7A6
:10477000B7FE0028ECD148B010BD00000C28002086
:10478000000034434AD8124DFB210940726F6C6C13
:104790003A25662C70697463683A25660D0A000034
:1047A00064280020560000206D697373696F6E5F86
:1047B00061636B3A25640D0A000000004C00002084
:1047C0006D697373696F6E5F726571756573743A45
:1047D00025640D0A0000000012000020502800206F
:1047E000E027002028280020D7FCF041363FE24295
:1047F000A4704541D7FCF841363FE4429A99BB4149
:1048000047000020704700001CB50C46064B7B4457
:1048100069460090204600F088F904460020694669
:1048200000F096F920461CBD3F03000010B5431C64
:1048300002E010F8011B71B18107FAD14FF001328B
:1048400002C88C1A8C4314EAC211F9D0C01A0A06A5
:1048500003D0C01E10BDC01A10BD0A0401D0801EB6
:1048600010BD0902FCD0401E10BD032A40F230806A
:1048700010F0030C00F0158011F8013BBCF1020FA1
:10488000624498BF11F801CB00F8013B38BF11F822
:10489000013BA2F1040298BF00F801CB38BF00F839
:1048A000013B11F0030300F02580083AC0F00880B6
:1048B00051F8043B083A51F804CBA0E80810F5E79A
:1048C000121D5CBF51F8043B40F8043BAFF300807D
:1048D000D20724BF11F8013B11F801CB48BF11F8F2
:1048E000012B24BF00F8013B00F801CB48BF00F8C2
:1048F000012B704710B5203AC0F00B80B1E818507A
:10490000203AA0E81850B1E81850A0E81850BFF4B9
:10491000F5AF5FEA027C24BFB1E81850A0E8185058
:1049200044BF18C918C0BDE810405FEA827C24BFAC
:1049300051F8043B40F8043B08BF7047D20728BF3A
:1049400031F8023B48BF11F8012B28BF20F8023B89
:1049500048BF00F8012B70474FF000020429C0F057
:10496000128010F0030C00F0DD82CCF1040CBCF1DD
:10497000020F18BF00F8012BA8BF20F8022BA1EBF3
:104980000C0100F0CFBA5FEAC17C24BF00F8012B14
:1049900000F8012B48BF00F8012B704770477047A3
:1049A0007047704710B500F0E3FA006810BD10B50D
:1049B000044600F0DDFA046010BD70B50446856958
:1049C0000068C10601D5302600E02026C00707D0C8
:1049D00070BDD4E9012130469047206A401C206216
:1049E0006D1EF6D570BD70B5044685690078C007A8
:1049F00007D170BDD4E9012120209047206A401CD6
:104A000020626D1EF6D570BD09684A0501D540B219
:104A10007047C905FCD500B2704709684A0501D541
:104A2000C0B27047C905FCD580B2704770B50C465E
:104A30000546012A05D02878800600D5EA690023BA
:104A400002E0012305E05B1C934202D2E05C0028F7
:104A5000F9D1A869E618C01AA861286A1844286222
:104A60002846FFF7AAFF04E0D5E9012114F8010B5D
:104A70009047B442F8D32846FFF7B5FF70BD000059
:104A80002DE9F0410646002410687529314616A527
:104A900010D0FFF7B9FF002802DA404213A507E063
:104AA00031688A0701D512A502E0490704D511A58E
:104AB000012401E0FFF7B1FF00210A2206F12407DB
:104AC00009E0B0FBF2FCB0FBF2F302FB1C0030305B
:104AD00078541846491C0028F3D123462A4630460C
:104AE000BDE8F04100F08DBA000000002D0000008C
:104AF0002B0000002000000011680268006A5305C6
:104B000001D508700AE0D30501D5088006E0130638
:104B100003D5C217C1E9000200E008600120704718
:104B200001694A1C02610878704700B58FB0CDE971
:104B300001310021059105497944CDE90310114661
:104B4000684600F029F90FB000BD0000E5FFFFFF47
:104B50000A6802F8010B0A60704700002DE9FF5F48
:104B600015468A460446DFF8AC80F8440027D8E9A9
:104B700000103E46CDE9001010E03AF816106A46E3
:104B800002A800F0D0FC411C07D02178890603D58B
:104B9000E269391891420DD80744761C20788006C6
:104BA00002D5E069B84205DDAE42E6DB3AF8160010
:104BB0000028E2D1A069C01BA0612046FFF7FDFEDE
:104BC000D8E90010CDE90010002017E03AF81810DD
:104BD0006A4602A800F0A7FCB0F1FF3F81460BD067
:104BE00000250DF1080B05E0D4E901211BF80500B3
:104BF00090476D1C4D45F7D308F10100B042804647
:104C0000E4DB206A384420622046FFF7ECFEBDE872
:104C1000FF9F0000F23600002DE9F0418046D21DD2
:104C200022F007020025D2E90002F52915A614D0CA
:104C3000011E72F1000106DA0023D0EB030063EBE2
:104C4000020211A608E0D8F800108B0701D50FA6C4
:104C500002E0490701D50EA601251146002408F1FE
:104C6000240704E000F088F930323A55641C50EA19
:104C70000102F7D12B46324621464046BDE8F041BD
:104C800000F0BFB9000000002D0000002B00000064
:104C90002000000030B4002100F1240408E002F0FC
:104CA0000705D208303542EA4372DB086554491CD7
:104CB00052EA0305F3D10468002310A2250708D5A2
:104CC00004F020040C4304D0C46901230CA2641E28
:104CD000C46130BC00F095B910B504462146106897
:104CE000FFF79BFE02462046BDE810400023D1E7B7
:104CF000D21D22F00701D1E90023CBE7000000001C
:104D000030000000F0B40D460188090502D5214CA1
:104D10007C4402E01F4C7C440E34002100F1240648
:104D200008E002F00F071209E75D42EA03721B096F
:104D30007754491C52EA0307F3D102780023120783
:104D400004D5702D06D009B1022311342246F0BCDF
:104D500000F057B901231034F8E770B504460D464A
:104D600021461068FFF759FE024629462046BDE855
:104D700070400023C6E7D21D22F00703D3E90023C9
:104D8000C0E70368126843F0200303600823C3618F
:104D90000023B7E7543500002DE9F05F894604464B
:104DA0004FF0000ADFF874B1FB44C0F820A02046A1
:104DB000E1688847002874D0252806D0D4E901216D
:104DC0009047206A401C2062F1E700265F4620469B
:104DD000E16888472028054607DB312D05D2781980
:104DE00010F8200C08B10643F1E7B00701D526F012
:104DF0000406C4F81CA00027C4F818A02A2D09D066
:104E0000284601F0E8FB38B304EB8708303DC8F8CA
:104E1000185019E059F8041B204604EB87029161F1
:104E2000E1688847012F054618D1E069002820DA9B
:104E300026F020061DE0D8F8180000EB800005EBF6
:104E400040003038C8F818002046E1688847054619
:104E500001F0C1FB0028EED1012F0AD02E2D08D180
:104E60002046E16888477F1C0546022F46F0200651
:104E7000C4DBA069002803DA404246F00106A061C5
:104E8000F00701D026F010066C2D0BD0682D09D04C
:104E90004C2D39D06A2D35D0742D35D07A2D33D0A4
:104EA00016E038E0E1682F4620468847B8420546BC
:104EB00009D16C2F26D04FF48060E168064320466C
:104EC0008847054604E06C2F1AD04FF480700643E3
:104ED0000DB3A5F14100192802D8203546F400662B
:104EE0004A462946204626604E46FBF75BF980B1CC
:104EF00001280BD0F61D26F0070000F1080956E73F
:104F00004020E4E78020D8E70020D6E706F1040936
:104F10004DE7284652E7206ABDE8F09FE4340000E0
:104F20004FF0000200B5134694469646203922BF42
:104F3000A0E80C50A0E80C50B1F12001BFF4F7AF8D
:104F4000090728BFA0E80C5048BF0CC05DF804EB6F
:104F5000890028BF40F8042B08BF704748BF20F8DD
:104F6000022B11F0804F18BF00F8012B7047000092
:104F700000487047642D002030B5B0F10A024FEAB6
:104F8000900E71F100034EEA817EB0EB0E0061EBF2
:104F900091014FEA101E4EEA017E10EB0E0041EB2C
:104FA00011114FEA102E4EEA016E10EB0E0041EB8C
:104FB00011214FEA104E4EEA014E10EB0E0041EB6C
:104FC0001141401841F100014FEAD00040EA417020
:104FD0004FEAD10110EB80054FEA810444EA907456
:104FE00044EB01046D1944EB0404521BA3414FF040
:104FF000000348BF0A3200D530BD401C41F100011A
:1050000030BD2DE9F0470D4699469246044600F121
:1050100024080168880604D5E06921F010012160A8
:1050200000E00120A84201DD471B00E00027A16944
:105030007A1902EB0900081AA0612078C00602D490
:105040002046FFF7BAFC002608E0D4E901211AF84F
:1050500006009047206A401C761C20624E45F4DB17
:105060002078C0060AD52046FFF7A7FC06E0D4E961
:10507000012130209047206A401C2062381EA7F191
:105080000107F4DC07E0D4E9012118F80500904796
:10509000206A401C2062281EA5F10105F3DC204691
:1050A000FFF7A1FC2078000602D50220BDE8F087BA
:1050B0000120FBE770472DE9FF4F0C461E464FF0DD
:1050C000FF378BB0D2E90001DDF860800A908A4694
:1050D000C1F30A5505B93D46002108464FF00000CE
:1050E000BAF1000F00F4400005DA00EB80004FF445
:1050F000400101EA50004FEA9059B9F1010F00DD7B
:10510000B9460A9850EA4A000ED044F61050A5F26B
:10511000FF3545432F14B8F1000F1ED07542291EEC
:105120001EDDC9F100021CE0B8F1010F4FF00000D4
:1051300001D0302103E0F24305E02154401CB0428D
:10514000FBDB30460022002121540B99C1F8088076
:10515000C1E900200FB0BDE8F08FBD1B6D1CDEE77C
:105160004A4600DA694206A800F074FA06AB93E8F2
:10517000070003AB83E8070050460A9900F022FBC2
:105180008DE80700A0F500501F3800900398002D0F
:1051900009DD42F21F014A46084403A9039068460C
:1051A00000F081FD08E0A0F500504A461F3803A931
:1051B0000390684600F08BFD8DE807000004000CAA
:1051C00003D04FF0FF30410800E01046B8F1000F67
:1051D00003D00022009215461EE0751E05D4FFF78D
:1051E000CBFE303262556D1EF9D5B346012208431D
:1051F00002D000227F1C04E02078302801D1002258
:105200007F1E002A099786D01DE0112D07DAFFF7CF
:10521000B3FE303262556D1C50EA0102F5D10843ED
:1052200002D00098C8B10EE00021681E05E0235CA2
:10523000625C63542254401E491C8142F7DBAB463A
:10524000A81B401E0990002004F80B000B98099A37
:10525000C0F80880C0E9002B7CE711264FF0000859
:1052600059E72DE9F04F88460446D21D22F0070188
:1052700091B0D1E90001CDE90A0100F05EFE0246DD
:105280000B98C00F01D02D2007E02068810701D5C1
:105290002B2002E0202101EAC000032A099001D05E
:1052A000072A05DB03464146204600F093F90BE14F
:1052B0002078800601D5E06900E00620B8F1650F8E
:1052C000814606D0B8F1660F18D0B8F1670F70D1DB
:1052D00031E00020B9F1110F009001DB112301E052
:1052E00009F101030AAA01A90CA8FFF7E4FEDDE910
:1052F0000C70002609F10105834647E001204B466A
:1053000000904FF000470AAA01A90CA8FFF7D3FEAE
:10531000DDE90DB00C995D46002610B909F10100D8
:105320000D18B9EB050003D4C0F1FF3609F10105F2
:10533000A5EB09002BE0B9F1010F01DA4FF00109EB
:105340000020B9F1110F0090484601DD112300E063
:1053500003460AAA01A90CA8FFF7ADFEDDE90C700F
:105360004D4600268346207800070AD4AB4500DA74
:105370005D4601A8012D04DD411911F8011C3029F9
:1053800007D04F4502DA17F1040F04DA01208246F4
:105390000FE06D1EEEE7002F02DCED1B3E4403E044
:1053A000781CA84200DD7D1CB81B00F1010A4FF0FB
:1053B00000472078000703D4AA4501DB4FF0FF3AED
:1053C0000021B7F1004F0DF143088DF8431024D0B0
:1053D00002202B23002F01DA7F422D230A21021EF7
:1053E000A0F1010000DC5FB197FBF1FC97FBF1F24B
:1053F00001FB1C7C17460CF1300C08F801CDEEE7E0
:10540000A8F1010003702188090501D5452100E0BC
:105410006521A0F1010800F8011C09980FA9A1EB72
:105420000807FF1D00B10120411901EBEA70A169D5
:105430003844081A401EA0612078C00602D42046D5
:10544000FFF7BBFA099828B1D4E901219047206AF7
:10545000401C20622078C00622D52046FFF7ADFA16
:105460001EE0002E04DBB34502DD01A8805D00E0F4
:105470003020D4E901219047206A401C2062761C2C
:10548000AAF101005FEA000A0AD100F09FF8C068A3
:105490000168405CD4E901219047206A401C2062E9
:1054A000281EA5F10105DCDC07E0D4E9012118F88C
:1054B000010B9047206A401C2062381EA7F10107AB
:1054C000F3DC2046FFF78FFA032011B043E610B556
:1054D000436913B1AFF3008001E0FFF7A7FA0120A1
:1054E00010BD127800F124010A7000224A700122D6
:1054F000EDE711684FF0FF32E9E710B5436913B1EA
:10550000AFF3008001E0FFF729FB012010BD1288F6
:1055100000F1240182840022C2840122EDE7116897
:105520004FF0FF32E9E770B516460C46054600F02D
:1055300045F8036893F80101012806D0FF2C0FD825
:10554000185D68B101202C7070BDD3F80701324698
:10555000214603F2071303442846BDE8704018476C
:105560004FF0FF3070BD000000487047642D0020F0
:105570007546FFF7F9FFAE4605006946534620F031
:105580000700854618B020B5FCF7BCF9BDE82040FF
:105590004FF000064FF000074FF000084FF0000BEF
:1055A00021F00701AC46ACE8C009ACE8C009ACE8A2
:1055B000C009ACE8C0098D467047000010B500F086
:1055C00005F8001D10BD00BFC91600000048704757
:1055D000842D00202DE9F0411F4604460326016872
:1055E000072A01F4006004DB08B116A505E016A542
:1055F00003E008B115A500E015A521F0100020601A
:10560000A069C01EA0610FB1401EA0612046FFF737
:10561000D4F94FB1D4E9012138469047206A401CA3
:105620002062C01C206206E0206AFAE7D4E901216A
:1056300015F8010B9047761EF8D22046FFF7D3F9F4
:10564000BDE8F0814E414E006E616E00494E46004D
:10565000696E66002DE9F047814616468AB03348E8
:1056600078440DC88DE80D0030487844801C03ACA8
:105670000DC884E80D0041F69B300844372190FBAB
:10568000F1F290FBF1F5A5F1800501FB12041B3C42
:1056900002D56442012000E00020DFF890A080469F
:1056A0000027FA44AAF1BE0A0DE0E00709D032460D
:1056B000684607EB47010AEB810100F008FB8DE823
:1056C000070064107F1C002CEFD1184F7F44AC3FC3
:1056D00018E0E80714D007EB04100DF1180A90E861
:1056E0000E008AE80E00C068F04201D198190890B7
:1056F000324606A903A800F0EAFA03AB83E80700E4
:105700006D10641C002DE4D132466946B8F1000FDB
:1057100003A802D000F0C7FA01E000F0D8FAC9E906
:105720000001C9F808200AB0BDE8F087E02D0000AC
:1057300010B50446AFF300802046BDE81040FAF7EC
:1057400094BD00004FF0013C50F8042B51F8043B8D
:105750009A4221D1A2EB0C03934313EACC1317D145
:1057600050F8042B51F8043B9A4215D1A2EB0C03DC
:10577000934313EACC130BD150F8042B51F8043B9C
:105780009A4209D1A2EB0C03934313EACC13DBD06A
:105790004FF00000704700BFD01A01BAB1FA81F192
:1057A00001F0180122FA01F0CB40C1F12001DBB277
:1057B000C0B2C01A2CFA01F3D11A914311EAC311F5
:1057C000E6D170475FEA400C08BF91F0000F4FEA46
:1057D0008C234FEAC12243EA51514FEA1C5018BFB3
:1057E00000F5F0404FEA300018BF41F000415FEA99
:1057F0006C5C00F02980BCF1FF3F08BF40F08040A6
:105800007047130C06BF12044FF0100C4FF0000C41
:10581000130E04BF12020CF1080C130F04BF120187
:105820000CF1040C930F04BF92000CF1020CD30F87
:1058300004BF52000CF1010C11464FF00002A0F120
:105840001F00A0EB0C00704711F0004F08BF70471D
:1058500031F000413FF4D5AF0B0C06BF09044FF007
:10586000100C4FF0000C0B0E04BF09020CF1080CD9
:105870000B0F04BF09010CF1040C8B0F04BF89004E
:105880000CF1020CCB0F04BF49000CF1010CCCF160
:105890002003A0EB0C0022FA03F302FA0CF241EA17
:1058A000030100F10100704720F07F4C80EA030003
:1058B00023F07F47ACEB070303F57C5300F0004077
:1058C00003F1FF032DE980494FEA154B09B44FEA74
:1058D000144325EA0B4E24EA03480FF2042606EB94
:1058E000132749083E785FEA320203FB0667C7F5D3
:1058F000000707FB06F64FEA54374FEAD64606F193
:10590000020607FB066CCCF1005C4FEA1C472CEA50
:10591000074C07FB06F40CFB06F504EB15464FEAB3
:10592000961634BF00204FF000404FEAD13706FBF7
:1059300007FC4FEA1C4C0CFB0BF7D21B03FB0CF7CC
:1059400061EB07010CFB0EF7B0EB074072EB17425F
:105950000CFB08F734BFA2EB0742B2EB074261EB46
:1059600017414FEA0C444FEA910706FB07FC4FEA48
:105970001C4C0CFB0BF7B0EBC74072EB573203FB30
:105980000CF734BFA2EBC742B2EBC74261EB573111
:105990000CFB0EF7B0EBC70072EB57720CFB08F76D
:1059A00034BFA2EBC702B2EBC70261EB5771039F92
:1059B0004FEA816141EA921104EBCC044FEAD137FE
:1059C0004FEA826206FB07FC42EA90124FEA8060CF
:1059D0004FEA1C4C0CFB0BF7D21B03FB0CF761EBE3
:1059E00007010CFB0EF7B0EB074072EB17420CFB04
:1059F00008F734BFA2EB0742B2EB074261EB174155
:105A00004FEA8C554FEA910704EB9C2406FB07FCF8
:105A10004FEA1C4C0CFB0BF7B0EBC74072EB573254
:105A200003FB0CF734BFA2EBC742B2EBC74261EBFA
:105A300057310CFB0EF7B0EBC70072EB57720CFB43
:105A400008F734BFA2EBC702B2EBC70261EB577194
:105A500015EB4C254FEA816141EA92114FEA8262CF
:105A60004FEAD13742EA901206FB07FC44F10004EA
:105A70004FEA80604FEA1C4C0CFB0BF7D21B03FB78
:105A80000CF761EB07010CFB0EF7B0EB074072EB74
:105A900017420CFB08F734BFA2EB0742B2EB0742F8
:105AA00061EB174115EB1C154FEA813141EA924138
:105AB0004FEA823242EA90424FEA80304FEA0C7657
:105AC00044F1000448EA03434EEA0B484FF0000E4D
:105AD000B2EB080C71EB030724BF624639464EEB6C
